{
  "_format": "hh-sol-artifact-1",
  "contractName": "BonMass",
  "sourceName": "contracts/BonMass.sol",
  "abi": [
    {
      "inputs": [],
      "stateMutability": "nonpayable",
      "type": "constructor"
    },
    {
      "anonymous": false,
      "inputs": [
        {
          "indexed": true,
          "internalType": "uint64",
          "name": "userId",
          "type": "uint64"
        },
        {
          "indexed": true,
          "internalType": "bytes32",
          "name": "dataHash",
          "type": "bytes32"
        },
        {
          "indexed": false,
          "internalType": "string",
          "name": "label",
          "type": "string"
        },
        {
          "indexed": false,
          "internalType": "uint64",
          "name": "ts",
          "type": "uint64"
        }
      ],
      "name": "DbEvent",
      "type": "event"
    },
    {
      "inputs": [
        {
          "internalType": "uint64",
          "name": "userId",
          "type": "uint64"
        },
        {
          "internalType": "bytes32",
          "name": "dataHash",
          "type": "bytes32"
        },
        {
          "internalType": "string",
          "name": "label",
          "type": "string"
        }
      ],
      "name": "emitDbEvent",
      "outputs": [],
      "stateMutability": "nonpayable",
      "type": "function"
    }
  ],
  "bytecode": "0x608060405234801561001057600080fd5b50336000806101000a81548173ffffffffffffffffffffffffffffffffffffffff021916908373ffffffffffffffffffffffffffffffffffffffff1602179055506103e7806100606000396000f3fe608060405234801561001057600080fd5b506004361061002b5760003560e01c806381a3b35c14610030575b600080fd5b61004a6004803603810190610045919061020c565b61004c565b005b60008054906101000a900473ffffffffffffffffffffffffffffffffffffffff1673ffffffffffffffffffffffffffffffffffffffff163373ffffffffffffffffffffffffffffffffffffffff16146100da576040517f08c379a00000000000000000000000000000000000000000000000000000000081526004016100d190610303565b60405180910390fd5b828467ffffffffffffffff167f01dd6b0fa41dc545e32db325b32c671c510a27063a5ad418dac67b6eb29180588484426040516101199392919061037f565b60405180910390a350505050565b600080fd5b600080fd5b600067ffffffffffffffff82169050919050565b61014e81610131565b811461015957600080fd5b50565b60008135905061016b81610145565b92915050565b6000819050919050565b61018481610171565b811461018f57600080fd5b50565b6000813590506101a18161017b565b92915050565b600080fd5b600080fd5b600080fd5b60008083601f8401126101cc576101cb6101a7565b5b8235905067ffffffffffffffff8111156101e9576101e86101ac565b5b602083019150836001820283011115610205576102046101b1565b5b9250929050565b6000806000806060858703121561022657610225610127565b5b60006102348782880161015c565b945050602061024587828801610192565b935050604085013567ffffffffffffffff8111156102665761026561012c565b5b610272878288016101b6565b925092505092959194509250565b600082825260208201905092915050565b7f4f6e6c79207468652061646d696e2063616e2063616c6c20746869732066756e60008201527f6374696f6e000000000000000000000000000000000000000000000000000000602082015250565b60006102ed602583610280565b91506102f882610291565b604082019050919050565b6000602082019050818103600083015261031c816102e0565b9050919050565b82818337600083830152505050565b6000601f19601f8301169050919050565b600061034f8385610280565b935061035c838584610323565b61036583610332565b840190509392505050565b61037981610131565b82525050565b6000604082019050818103600083015261039a818587610343565b90506103a96020830184610370565b94935050505056fea26469706673582212207f18988a07f22b8b8e25efab1b689a31ae78c8531a4a68df264f12f3ce7ed0f164736f6c63430008180033",
  "linkReferences": {},
  "deployedLinkReferences": {}
}